Running 1 test case...
Running tests using path: /home/wumh/tests
Active client configurations: 'default '
Checking test filler hashes for GeneralStateTests/stExample[0m
Running tests for config 'Ethereum GO on TCP' 2
Test Case "stExample": 
100%
/home/wumh/.retesteth/default/start.sh[0m
Run new connection session for `6342012772292451199`[0m
addr: 127.0.0.1:8545[0m
New instance started[0m
Running add11: (6342012772292451199)[0m
Request: {"jsonrpc":"2.0","method":"test_setChainParams","params":[{
    "params" : {
        "homesteadForkBlock" : "0x00",
        "EIP150ForkBlock" : "0x00",
        "EIP158ForkBlock" : "0x00",
        "byzantiumForkBlock" : "0x00",
        "constantinopleForkBlock" : "0x00",
        "constantinopleFixForkBlock" : "0x00",
        "istanbulForkBlock" : "0x00",
        "chainID" : "0x01"
    },
    "accounts" : {
        "0x095e7baea6a6c7c4c2dfeb977efac326af552d87" : {
            "balance" : "0x0de0b6b3a7640000",
            "code" : "0x600160010160005500",
            "nonce" : "0x00",
            "storage" : {
            }
        },
        "0xa94f5374fce5edbc8e2a8697c15331677e6ebf0b" : {
            "balance" : "0x0de0b6b3a7640000",
            "code" : "0x",
            "nonce" : "0x00",
            "storage" : {
            }
        }
    },
    "sealEngine" : "NoReward",
    "genesis" : {
        "author" : "0x2adc25665018aa1fe0e6bc666dac8fc2697ff9ba",
        "difficulty" : "0x020000",
        "gasLimit" : "0xff112233445566",
        "extraData" : "0x00",
        "timestamp" : "0x00",
        "nonce" : "0x0000000000000000",
        "mixHash" : "0x0000000000000000000000000000000000000000000000000000000000000000"
    }
}],"id":1}[0m
Reply: `{"jsonrpc":"2.0","id":1,"result":true}
`[0m
Request: {"jsonrpc":"2.0","method":"test_modifyTimestamp","params":[1000],"id":2}[0m
Reply: `{"jsonrpc":"2.0","id":2,"result":true}
`[0m
Request: {"jsonrpc":"2.0","method":"eth_sendRawTransaction","params":["0xf863800183061a8094095e7baea6a6c7c4c2dfeb977efac326af552d87830186a0801ca0e94818d1f3b0c69eb37720145a5ead7fbf6f8d80139dd53953b4a782301050a3a01fcf46908c01576715411be0857e30027d6be3250a3653f049b3ff8d74d2540c"],"id":3}[0m
Reply: `{"jsonrpc":"2.0","id":3,"result":"0x5363f287fccaad86a0ce8d2c5b15b4b917afe6ebac6a87e61884bf18fc7af58a"}
`[0m
Request: {"jsonrpc":"2.0","method":"test_mineBlocks","params":[1],"id":4}[0m
Reply: `{"jsonrpc":"2.0","id":4,"result":true}
`[0m
Request: {"jsonrpc":"2.0","method":"eth_blockNumber","params":[],"id":5}[0m
Reply: `{"jsonrpc":"2.0","id":5,"result":1}
`[0m
Request: {"jsonrpc":"2.0","method":"eth_getBlockByNumber","params":["0x01", false],"id":6}[0m
Reply: `{"jsonrpc":"2.0","id":6,"result":{"author":"0x2adc25665018aa1fe0e6bc666dac8fc2697ff9ba","difficulty":"0x20000","extraData":"0x00","gasLimit":"0xff50e67bd1267a","gasUsed":"0xa034","hash":"0x0ed4fc380e5336416ea68a99bd10ecfaa32fa158b95c6767b5415653001eb236","logsBloom":"0x00000000000000000000000000000000000000000000000000000000000000000000000000000000000000000000000000000000000000000000000000000000000000000000000000000000000000000000000000000000000000000000000000000000000000000000000000000000000000000000000000000000000000000000000000000000000000000000000000000000000000000000000000000000000000000000000000000000000000000000000000000000000000000000000000000000000000000000000000000000000000000000000000000000000000000000000000000000000000000000000000000000000000000000000000000000","miner":"0x2adc25665018aa1fe0e6bc666dac8fc2697ff9ba","mixHash":"0x0000000000000000000000000000000000000000000000000000000000000000","nonce":"0x0000000000000000","number":"0x1","parentHash":"0x9ea898ec26dd2ea9e0895dc06d4225fdb328c954b8f853448dfcc720daa86679","receiptsRoot":"0x5a0b89fb1e5f44d02b5900c39683a1796c591b2c3b08e3b1bfc94f5aa4f3c44d","sha3Uncles":"0x1dcc4de8dec75d7aab85b567b6ccd41ad312451b948a7413f0a142fd40d49347","size":"0x269","stateRoot":"0xe4c855f0d0e96d48d73778772ee570c45acb7c57f87092e08fed6b2205d390f4","timestamp":"0x3e8","totalDifficulty":"0x40000","transactions":["0x5363f287fccaad86a0ce8d2c5b15b4b917afe6ebac6a87e61884bf18fc7af58a"],"transactionsRoot":"0x93ca2a18d52e7c1846f7b104e2fc1e5fdc71ebe38187248f9437d39e74f43aab","uncles":[]}}
`[0m
Request: {"jsonrpc":"2.0","method":"eth_blockNumber","params":[],"id":7}[0m
Reply: `{"jsonrpc":"2.0","id":7,"result":1}
`[0m
Request: {"jsonrpc":"2.0","method":"eth_getBlockByNumber","params":["0x01", false],"id":8}[0m
Reply: `{"jsonrpc":"2.0","id":8,"result":{"author":"0x2adc25665018aa1fe0e6bc666dac8fc2697ff9ba","difficulty":"0x20000","extraData":"0x00","gasLimit":"0xff50e67bd1267a","gasUsed":"0xa034","hash":"0x0ed4fc380e5336416ea68a99bd10ecfaa32fa158b95c6767b5415653001eb236","logsBloom":"0x00000000000000000000000000000000000000000000000000000000000000000000000000000000000000000000000000000000000000000000000000000000000000000000000000000000000000000000000000000000000000000000000000000000000000000000000000000000000000000000000000000000000000000000000000000000000000000000000000000000000000000000000000000000000000000000000000000000000000000000000000000000000000000000000000000000000000000000000000000000000000000000000000000000000000000000000000000000000000000000000000000000000000000000000000000000","miner":"0x2adc25665018aa1fe0e6bc666dac8fc2697ff9ba","mixHash":"0x0000000000000000000000000000000000000000000000000000000000000000","nonce":"0x0000000000000000","number":"0x1","parentHash":"0x9ea898ec26dd2ea9e0895dc06d4225fdb328c954b8f853448dfcc720daa86679","receiptsRoot":"0x5a0b89fb1e5f44d02b5900c39683a1796c591b2c3b08e3b1bfc94f5aa4f3c44d","sha3Uncles":"0x1dcc4de8dec75d7aab85b567b6ccd41ad312451b948a7413f0a142fd40d49347","size":"0x269","stateRoot":"0xe4c855f0d0e96d48d73778772ee570c45acb7c57f87092e08fed6b2205d390f4","timestamp":"0x3e8","totalDifficulty":"0x40000","transactions":["0x5363f287fccaad86a0ce8d2c5b15b4b917afe6ebac6a87e61884bf18fc7af58a"],"transactionsRoot":"0x93ca2a18d52e7c1846f7b104e2fc1e5fdc71ebe38187248f9437d39e74f43aab","uncles":[]}}
`[0m
Request: {"jsonrpc":"2.0","method":"debug_accountRange","params":["1", 1, "0x0000000000000000000000000000000000000000000000000000000000000001", 10],"id":9}[0m
Reply: `{"jsonrpc":"2.0","id":9,"result":{"addressMap":{"0x03601462093b5945d1676df093446790fd31b20e7b12a2e8e5e09d068109616b":"0xa94f5374fce5edbc8e2a8697c15331677e6ebf0b","0x0fbc62ba90dec43ec1d6016f9dd39dc324e967f2a3459a78281d1f4b2ba962a6":"0x095e7baea6a6c7c4c2dfeb977efac326af552d87","0x9d860e7bb7e6b09b87ab7406933ef2980c19d7d0192d8939cf6dc6908a03305f":"0x2adc25665018aa1fe0e6bc666dac8fc2697ff9ba"},"nextKey":"0x0000000000000000000000000000000000000000000000000000000000000000"}}
`[0m
Request: {"jsonrpc":"2.0","method":"eth_getBalance","params":["0xa94f5374fce5edbc8e2a8697c15331677e6ebf0b", "0x01"],"id":10}[0m
Reply: `{"jsonrpc":"2.0","id":10,"result":"0xde0b6b3a761d92c"}
`[0m
Request: {"jsonrpc":"2.0","method":"eth_getTransactionCount","params":["0xa94f5374fce5edbc8e2a8697c15331677e6ebf0b", "0x01"],"id":11}[0m
Reply: `{"jsonrpc":"2.0","id":11,"result":1}
`[0m
Request: {"jsonrpc":"2.0","method":"eth_getCode","params":["0xa94f5374fce5edbc8e2a8697c15331677e6ebf0b", "0x01"],"id":12}[0m
Reply: `{"jsonrpc":"2.0","id":12,"result":"0x"}
`[0m
Request: {"jsonrpc":"2.0","method":"debug_storageRangeAt","params":["1", 1, "0xa94f5374fce5edbc8e2a8697c15331677e6ebf0b", "0x0000000000000000000000000000000000000000000000000000000000000000", 20],"id":13}[0m
Reply: `{"jsonrpc":"2.0","id":13,"result":{"complete":true,"storage":{}}}
`[0m
[33mWARNING: DebugStorageRangeAt key `nextKey` is not set, use `0x00..00` instead.[0m
Request: {"jsonrpc":"2.0","method":"eth_getBalance","params":["0x095e7baea6a6c7c4c2dfeb977efac326af552d87", "0x01"],"id":14}[0m
Reply: `{"jsonrpc":"2.0","id":14,"result":"0xde0b6b3a76586a0"}
`[0m
Request: {"jsonrpc":"2.0","method":"eth_getTransactionCount","params":["0x095e7baea6a6c7c4c2dfeb977efac326af552d87", "0x01"],"id":15}[0m
Reply: `{"jsonrpc":"2.0","id":15,"result":0}
`[0m
Request: {"jsonrpc":"2.0","method":"eth_getCode","params":["0x095e7baea6a6c7c4c2dfeb977efac326af552d87", "0x01"],"id":16}[0m
Reply: `{"jsonrpc":"2.0","id":16,"result":"0x600160010160005500"}
`[0m
Request: {"jsonrpc":"2.0","method":"debug_storageRangeAt","params":["1", 1, "0x095e7baea6a6c7c4c2dfeb977efac326af552d87", "0x0000000000000000000000000000000000000000000000000000000000000000", 20],"id":17}[0m
Reply: `{"jsonrpc":"2.0","id":17,"result":{"complete":true,"storage":{"0x290decd9548b62a8d60345a988386fc84ba6bc95484008f6362f93160ef3e563":{"key":"0x00","value":"0x02"}}}}
`[0m
[33mWARNING: DebugStorageRangeAt key `nextKey` is not set, use `0x00..00` instead.[0m
Request: {"jsonrpc":"2.0","method":"eth_getBalance","params":["0x2adc25665018aa1fe0e6bc666dac8fc2697ff9ba", "0x01"],"id":18}[0m
Reply: `{"jsonrpc":"2.0","id":18,"result":"0xa034"}
`[0m
Request: {"jsonrpc":"2.0","method":"eth_getTransactionCount","params":["0x2adc25665018aa1fe0e6bc666dac8fc2697ff9ba", "0x01"],"id":19}[0m
Reply: `{"jsonrpc":"2.0","id":19,"result":0}
`[0m
Request: {"jsonrpc":"2.0","method":"eth_getCode","params":["0x2adc25665018aa1fe0e6bc666dac8fc2697ff9ba", "0x01"],"id":20}[0m
Reply: `{"jsonrpc":"2.0","id":20,"result":"0x"}
`[0m
Request: {"jsonrpc":"2.0","method":"debug_storageRangeAt","params":["1", 1, "0x2adc25665018aa1fe0e6bc666dac8fc2697ff9ba", "0x0000000000000000000000000000000000000000000000000000000000000000", 20],"id":21}[0m
Reply: `{"jsonrpc":"2.0","id":21,"result":{"complete":true,"storage":{}}}
`[0m
[33mWARNING: DebugStorageRangeAt key `nextKey` is not set, use `0x00..00` instead.[0m
Request: {"jsonrpc":"2.0","method":"test_getLogHash","params":["0x5363f287fccaad86a0ce8d2c5b15b4b917afe6ebac6a87e61884bf18fc7af58a"],"id":22}[0m
Reply: `{"jsonrpc":"2.0","id":22,"result":"0x1dcc4de8dec75d7aab85b567b6ccd41ad312451b948a7413f0a142fd40d49347"}
`[0m
Request: {"jsonrpc":"2.0","method":"test_rewindToBlock","params":[0],"id":23}[0m
Reply: `{"jsonrpc":"2.0","id":23,"result":true}
`[0m
Request: {"jsonrpc":"2.0","method":"web3_clientVersion","params":[],"id":24}[0m
Reply: `{"jsonrpc":"2.0","id":24,"result":"Geth-1.9.21-unstable-fc20680b-20200825"}
`[0m
Request: {"jsonrpc":"2.0","method":"test_setChainParams","params":[{
    "params" : {
        "homesteadForkBlock" : "0x00",
        "EIP150ForkBlock" : "0x00",
        "EIP158ForkBlock" : "0x00",
        "byzantiumForkBlock" : "0x00",
        "constantinopleForkBlock" : "0x00",
        "constantinopleFixForkBlock" : "0x00",
        "istanbulForkBlock" : "0x00",
        "chainID" : "0x01"
    },
    "accounts" : {
        "0x095e7baea6a6c7c4c2dfeb977efac326af552d87" : {
            "balance" : "0x0de0b6b3a7640000",
            "code" : "0x600160010160005500",
            "nonce" : "0x00",
            "storage" : {
            }
        },
        "0xa94f5374fce5edbc8e2a8697c15331677e6ebf0b" : {
            "balance" : "0x0de0b6b3a7640000",
            "code" : "0x",
            "nonce" : "0x00",
            "storage" : {
            }
        }
    },
    "sealEngine" : "NoReward",
    "genesis" : {
        "author" : "0x2adc25665018aa1fe0e6bc666dac8fc2697ff9ba",
        "difficulty" : "0x020000",
        "gasLimit" : "0xff112233445566",
        "extraData" : "0x00",
        "timestamp" : "0x00",
        "nonce" : "0x0000000000000000",
        "mixHash" : "0x0000000000000000000000000000000000000000000000000000000000000000"
    }
}],"id":25}[0m
Reply: `{"jsonrpc":"2.0","id":25,"result":true}
`[0m
Request: {"jsonrpc":"2.0","method":"test_modifyTimestamp","params":[1000],"id":26}[0m
Reply: `{"jsonrpc":"2.0","id":26,"result":true}
`[0m
Request: {"jsonrpc":"2.0","method":"eth_sendRawTransaction","params":["0xf863800183061a8094095e7baea6a6c7c4c2dfeb977efac326af552d87830186a0801ca0e94818d1f3b0c69eb37720145a5ead7fbf6f8d80139dd53953b4a782301050a3a01fcf46908c01576715411be0857e30027d6be3250a3653f049b3ff8d74d2540c"],"id":27}[0m
Reply: `{"jsonrpc":"2.0","id":27,"result":"0x5363f287fccaad86a0ce8d2c5b15b4b917afe6ebac6a87e61884bf18fc7af58a"}
`[0m
Request: {"jsonrpc":"2.0","method":"test_mineBlocks","params":[1],"id":28}[0m
Reply: `{"jsonrpc":"2.0","id":28,"result":true}
`[0m
Request: {"jsonrpc":"2.0","method":"eth_blockNumber","params":[],"id":29}[0m
Reply: `{"jsonrpc":"2.0","id":29,"result":1}
`[0m
Request: {"jsonrpc":"2.0","method":"eth_getBlockByNumber","params":["0x01", false],"id":30}[0m
Reply: `{"jsonrpc":"2.0","id":30,"result":{"author":"0x2adc25665018aa1fe0e6bc666dac8fc2697ff9ba","difficulty":"0x20000","extraData":"0x00","gasLimit":"0xff50e67bd1267a","gasUsed":"0xa034","hash":"0x0ed4fc380e5336416ea68a99bd10ecfaa32fa158b95c6767b5415653001eb236","logsBloom":"0x00000000000000000000000000000000000000000000000000000000000000000000000000000000000000000000000000000000000000000000000000000000000000000000000000000000000000000000000000000000000000000000000000000000000000000000000000000000000000000000000000000000000000000000000000000000000000000000000000000000000000000000000000000000000000000000000000000000000000000000000000000000000000000000000000000000000000000000000000000000000000000000000000000000000000000000000000000000000000000000000000000000000000000000000000000000","miner":"0x2adc25665018aa1fe0e6bc666dac8fc2697ff9ba","mixHash":"0x0000000000000000000000000000000000000000000000000000000000000000","nonce":"0x0000000000000000","number":"0x1","parentHash":"0x9ea898ec26dd2ea9e0895dc06d4225fdb328c954b8f853448dfcc720daa86679","receiptsRoot":"0x5a0b89fb1e5f44d02b5900c39683a1796c591b2c3b08e3b1bfc94f5aa4f3c44d","sha3Uncles":"0x1dcc4de8dec75d7aab85b567b6ccd41ad312451b948a7413f0a142fd40d49347","size":"0x269","stateRoot":"0xe4c855f0d0e96d48d73778772ee570c45acb7c57f87092e08fed6b2205d390f4","timestamp":"0x3e8","totalDifficulty":"0x40000","transactions":["0x5363f287fccaad86a0ce8d2c5b15b4b917afe6ebac6a87e61884bf18fc7af58a"],"transactionsRoot":"0x93ca2a18d52e7c1846f7b104e2fc1e5fdc71ebe38187248f9437d39e74f43aab","uncles":[]}}
`[0m
Request: {"jsonrpc":"2.0","method":"test_getLogHash","params":["0x5363f287fccaad86a0ce8d2c5b15b4b917afe6ebac6a87e61884bf18fc7af58a"],"id":31}[0m
Reply: `{"jsonrpc":"2.0","id":31,"result":"0x1dcc4de8dec75d7aab85b567b6ccd41ad312451b948a7413f0a142fd40d49347"}
`[0m
Request: {"jsonrpc":"2.0","method":"test_rewindToBlock","params":[0],"id":32}[0m
Reply: `{"jsonrpc":"2.0","id":32,"result":true}
`[0m
Executed: d: 0, g: 0, v: 0, fork: Istanbul[0m
/home/wumh/.retesteth/default/stop.sh[0m
*** Total Tests Run: 2

