Running 1 test case...
Running tests using path: /home/wumh/tests
Active client configurations: 'default '
Checking test filler hashes for GeneralStateTests/stExample[0m
Running tests for config 'Ethereum GO on TCP' 2
Test Case "stExample": 
100%
/home/wumh/.retesteth/default/start.sh[0m
Run new connection session for `6132384418983907900`[0m
addr: 127.0.0.1:8545[0m
New instance started[0m
Running add11: (6132384418983907900)[0m
Request: {"jsonrpc":"2.0","method":"test_setChainParams","params":[{
    "params" : {
        "homesteadForkBlock" : "0x00",
        "EIP150ForkBlock" : "0x00",
        "EIP158ForkBlock" : "0x00",
        "byzantiumForkBlock" : "0x00",
        "constantinopleForkBlock" : "0x00",
        "constantinopleFixForkBlock" : "0x00",
        "istanbulForkBlock" : "0x00",
        "chainID" : "0x01"
    },
    "accounts" : {
        "0x095e7baea6a6c7c4c2dfeb977efac326af552d87" : {
            "balance" : "0x0de0b6b3a7640000",
            "code" : "0x600160010160005500",
            "nonce" : "0x00",
            "storage" : {
            }
        },
        "0xa94f5374fce5edbc8e2a8697c15331677e6ebf0b" : {
            "balance" : "0x0de0b6b3a7640000",
            "code" : "0x",
            "nonce" : "0x00",
            "storage" : {
            }
        }
    },
    "sealEngine" : "NoReward",
    "genesis" : {
        "author" : "0x2adc25665018aa1fe0e6bc666dac8fc2697ff9ba",
        "difficulty" : "0x020000",
        "gasLimit" : "0xff112233445566",
        "extraData" : "0x00",
        "timestamp" : "0x00",
        "nonce" : "0x0000000000000000",
        "mixHash" : "0x0000000000000000000000000000000000000000000000000000000000000000"
    }
}],"id":1}[0m
Reply: `{"jsonrpc":"2.0","id":1,"result":true}
`[0m
Request: {"jsonrpc":"2.0","method":"test_modifyTimestamp","params":[1000],"id":2}[0m
Reply: `{"jsonrpc":"2.0","id":2,"result":true}
`[0m
Request: {"jsonrpc":"2.0","method":"eth_sendRawTransaction","params":["0xf863800183061a8094095e7baea6a6c7c4c2dfeb977efac326af552d87830186a0801ca0e94818d1f3b0c69eb37720145a5ead7fbf6f8d80139dd53953b4a782301050a3a01fcf46908c01576715411be0857e30027d6be3250a3653f049b3ff8d74d2540c"],"id":3}[0m
Reply: `{"jsonrpc":"2.0","id":3,"result":"0x0000000000000000000000000000000000000000000000000000000000000000"}
`[0m
Request: {"jsonrpc":"2.0","method":"test_mineBlocks","params":[1],"id":4}[0m
Reply: `{"jsonrpc":"2.0","id":4,"result":true}
`[0m
Request: {"jsonrpc":"2.0","method":"eth_blockNumber","params":[],"id":5}[0m
Reply: `{"jsonrpc":"2.0","id":5,"result":1}
`[0m
Request: {"jsonrpc":"2.0","method":"eth_getBlockByNumber","params":["0x01", false],"id":6}[0m
Reply: `{"jsonrpc":"2.0","id":6,"result":{"author":"0x2adc25665018aa1fe0e6bc666dac8fc2697ff9ba","difficulty":"0x20000","extraData":"0x00","gasLimit":"0xff50e67bd1267a","gasUsed":"0x0","hash":"0xcfdaf157930798866303faf7a6d66feff2913072f1e92dd381a15473686188dc","logsBloom":"0x00000000000000000000000000000000000000000000000000000000000000000000000000000000000000000000000000000000000000000000000000000000000000000000000000000000000000000000000000000000000000000000000000000000000000000000000000000000000000000000000000000000000000000000000000000000000000000000000000000000000000000000000000000000000000000000000000000000000000000000000000000000000000000000000000000000000000000000000000000000000000000000000000000000000000000000000000000000000000000000000000000000000000000000000000000000","miner":"0x2adc25665018aa1fe0e6bc666dac8fc2697ff9ba","mixHash":"0x0000000000000000000000000000000000000000000000000000000000000000","nonce":"0x0000000000000000","number":"0x1","parentHash":"0x0c8e2357c0f49b330c1b5c68134dc64e660d0f46745aa69264607d253909a69a","receiptsRoot":"0x56e81f171bcc55a6ff8345e692c0f86e5b48e01b996cadc001622fb5e363b421","sha3Uncles":"0x1dcc4de8dec75d7aab85b567b6ccd41ad312451b948a7413f0a142fd40d49347","size":"0x245","stateRoot":"0x23af372a0ccfd6a662f86652c982d9c769c0eb240428d6b124acd73a84057da5","timestamp":"0x3e8","totalDifficulty":"0x40000","transactions":[],"transactionsRoot":"0x56e81f171bcc55a6ff8345e692c0f86e5b48e01b996cadc001622fb5e363b421","uncles":[]}}
`[0m
/home/wumh/1/retesteth/retesteth/TestOutputHelper.cpp(208): error: in "GeneralStateTests/stExample": 
/home/wumh/.retesteth/default/stop.sh[0m
info:[33m (stExample/add11, fork: Istanbul, TrInfo: d: 0, g: 0, v: 0)[31m
